{
  "_format": "hh-sol-artifact-1",
  "contractName": "NFTMarket",
  "sourceName": "contracts/NFTMarket.sol",
  "abi": [
    {
      "inputs": [],
      "stateMutability": "nonpayable",
      "type": "constructor"
    },
    {
      "anonymous": false,
      "inputs": [
        {
          "indexed": true,
          "internalType": "address",
          "name": "owner",
          "type": "address"
        },
        {
          "indexed": true,
          "internalType": "address",
          "name": "approved",
          "type": "address"
        },
        {
          "indexed": true,
          "internalType": "uint256",
          "name": "tokenId",
          "type": "uint256"
        }
      ],
      "name": "Approval",
      "type": "event"
    },
    {
      "anonymous": false,
      "inputs": [
        {
          "indexed": true,
          "internalType": "address",
          "name": "owner",
          "type": "address"
        },
        {
          "indexed": true,
          "internalType": "address",
          "name": "operator",
          "type": "address"
        },
        {
          "indexed": false,
          "internalType": "bool",
          "name": "approved",
          "type": "bool"
        }
      ],
      "name": "ApprovalForAll",
      "type": "event"
    },
    {
      "anonymous": false,
      "inputs": [
        {
          "indexed": false,
          "internalType": "uint256",
          "name": "tokenID",
          "type": "uint256"
        },
        {
          "indexed": false,
          "internalType": "address",
          "name": "from",
          "type": "address"
        },
        {
          "indexed": false,
          "internalType": "address",
          "name": "to",
          "type": "address"
        },
        {
          "indexed": false,
          "internalType": "string",
          "name": "tokenURI",
          "type": "string"
        },
        {
          "indexed": false,
          "internalType": "uint256",
          "name": "price",
          "type": "uint256"
        }
      ],
      "name": "NFTTransfer",
      "type": "event"
    },
    {
      "anonymous": false,
      "inputs": [
        {
          "indexed": true,
          "internalType": "address",
          "name": "previousOwner",
          "type": "address"
        },
        {
          "indexed": true,
          "internalType": "address",
          "name": "newOwner",
          "type": "address"
        }
      ],
      "name": "OwnershipTransferred",
      "type": "event"
    },
    {
      "anonymous": false,
      "inputs": [
        {
          "indexed": true,
          "internalType": "address",
          "name": "from",
          "type": "address"
        },
        {
          "indexed": true,
          "internalType": "address",
          "name": "to",
          "type": "address"
        },
        {
          "indexed": true,
          "internalType": "uint256",
          "name": "tokenId",
          "type": "uint256"
        }
      ],
      "name": "Transfer",
      "type": "event"
    },
    {
      "inputs": [
        {
          "internalType": "address",
          "name": "to",
          "type": "address"
        },
        {
          "internalType": "uint256",
          "name": "tokenId",
          "type": "uint256"
        }
      ],
      "name": "approve",
      "outputs": [],
      "stateMutability": "nonpayable",
      "type": "function"
    },
    {
      "inputs": [
        {
          "internalType": "address",
          "name": "owner",
          "type": "address"
        }
      ],
      "name": "balanceOf",
      "outputs": [
        {
          "internalType": "uint256",
          "name": "",
          "type": "uint256"
        }
      ],
      "stateMutability": "view",
      "type": "function"
    },
    {
      "inputs": [
        {
          "internalType": "uint256",
          "name": "tokenID",
          "type": "uint256"
        }
      ],
      "name": "buyNFT",
      "outputs": [],
      "stateMutability": "payable",
      "type": "function"
    },
    {
      "inputs": [
        {
          "internalType": "uint256",
          "name": "tokenID",
          "type": "uint256"
        }
      ],
      "name": "cancelListing",
      "outputs": [],
      "stateMutability": "nonpayable",
      "type": "function"
    },
    {
      "inputs": [
        {
          "internalType": "string",
          "name": "tokenURI",
          "type": "string"
        }
      ],
      "name": "createNFT",
      "outputs": [],
      "stateMutability": "nonpayable",
      "type": "function"
    },
    {
      "inputs": [
        {
          "internalType": "uint256",
          "name": "tokenId",
          "type": "uint256"
        }
      ],
      "name": "getApproved",
      "outputs": [
        {
          "internalType": "address",
          "name": "",
          "type": "address"
        }
      ],
      "stateMutability": "view",
      "type": "function"
    },
    {
      "inputs": [
        {
          "internalType": "address",
          "name": "owner",
          "type": "address"
        },
        {
          "internalType": "address",
          "name": "operator",
          "type": "address"
        }
      ],
      "name": "isApprovedForAll",
      "outputs": [
        {
          "internalType": "bool",
          "name": "",
          "type": "bool"
        }
      ],
      "stateMutability": "view",
      "type": "function"
    },
    {
      "inputs": [
        {
          "internalType": "uint256",
          "name": "tokenID",
          "type": "uint256"
        },
        {
          "internalType": "uint256",
          "name": "price",
          "type": "uint256"
        }
      ],
      "name": "listNFT",
      "outputs": [],
      "stateMutability": "nonpayable",
      "type": "function"
    },
    {
      "inputs": [],
      "name": "name",
      "outputs": [
        {
          "internalType": "string",
          "name": "",
          "type": "string"
        }
      ],
      "stateMutability": "view",
      "type": "function"
    },
    {
      "inputs": [],
      "name": "owner",
      "outputs": [
        {
          "internalType": "address",
          "name": "",
          "type": "address"
        }
      ],
      "stateMutability": "view",
      "type": "function"
    },
    {
      "inputs": [
        {
          "internalType": "uint256",
          "name": "tokenId",
          "type": "uint256"
        }
      ],
      "name": "ownerOf",
      "outputs": [
        {
          "internalType": "address",
          "name": "",
          "type": "address"
        }
      ],
      "stateMutability": "view",
      "type": "function"
    },
    {
      "inputs": [],
      "name": "renounceOwnership",
      "outputs": [],
      "stateMutability": "nonpayable",
      "type": "function"
    },
    {
      "inputs": [
        {
          "internalType": "address",
          "name": "from",
          "type": "address"
        },
        {
          "internalType": "address",
          "name": "to",
          "type": "address"
        },
        {
          "internalType": "uint256",
          "name": "tokenId",
          "type": "uint256"
        }
      ],
      "name": "safeTransferFrom",
      "outputs": [],
      "stateMutability": "nonpayable",
      "type": "function"
    },
    {
      "inputs": [
        {
          "internalType": "address",
          "name": "from",
          "type": "address"
        },
        {
          "internalType": "address",
          "name": "to",
          "type": "address"
        },
        {
          "internalType": "uint256",
          "name": "tokenId",
          "type": "uint256"
        },
        {
          "internalType": "bytes",
          "name": "data",
          "type": "bytes"
        }
      ],
      "name": "safeTransferFrom",
      "outputs": [],
      "stateMutability": "nonpayable",
      "type": "function"
    },
    {
      "inputs": [
        {
          "internalType": "address",
          "name": "operator",
          "type": "address"
        },
        {
          "internalType": "bool",
          "name": "approved",
          "type": "bool"
        }
      ],
      "name": "setApprovalForAll",
      "outputs": [],
      "stateMutability": "nonpayable",
      "type": "function"
    },
    {
      "inputs": [
        {
          "internalType": "bytes4",
          "name": "interfaceId",
          "type": "bytes4"
        }
      ],
      "name": "supportsInterface",
      "outputs": [
        {
          "internalType": "bool",
          "name": "",
          "type": "bool"
        }
      ],
      "stateMutability": "view",
      "type": "function"
    },
    {
      "inputs": [],
      "name": "symbol",
      "outputs": [
        {
          "internalType": "string",
          "name": "",
          "type": "string"
        }
      ],
      "stateMutability": "view",
      "type": "function"
    },
    {
      "inputs": [
        {
          "internalType": "uint256",
          "name": "tokenId",
          "type": "uint256"
        }
      ],
      "name": "tokenURI",
      "outputs": [
        {
          "internalType": "string",
          "name": "",
          "type": "string"
        }
      ],
      "stateMutability": "view",
      "type": "function"
    },
    {
      "inputs": [
        {
          "internalType": "address",
          "name": "from",
          "type": "address"
        },
        {
          "internalType": "address",
          "name": "to",
          "type": "address"
        },
        {
          "internalType": "uint256",
          "name": "tokenId",
          "type": "uint256"
        }
      ],
      "name": "transferFrom",
      "outputs": [],
      "stateMutability": "nonpayable",
      "type": "function"
    },
    {
      "inputs": [
        {
          "internalType": "address",
          "name": "newOwner",
          "type": "address"
        }
      ],
      "name": "transferOwnership",
      "outputs": [],
      "stateMutability": "nonpayable",
      "type": "function"
    },
    {
      "inputs": [],
      "name": "withdrawFunds",
      "outputs": [],
      "stateMutability": "nonpayable",
      "type": "function"
    }
  ],
  "bytecode": "0x60806040523480156200001157600080fd5b506040518060400160405280600c81526020017f4162646f752773204e46547300000000000000000000000000000000000000008152506040518060400160405280600481526020017f414e465400000000000000000000000000000000000000000000000000000000815250816000908051906020019062000096929190620001a6565b508060019080519060200190620000af929190620001a6565b505050620000d2620000c6620000d860201b60201c565b620000e060201b60201c565b620002bb565b600033905090565b6000600760009054906101000a900473ffffffffffffffffffffffffffffffffffffffff16905081600760006101000a81548173ffffffffffffffffffffffffffffffffffffffff021916908373ffffffffffffffffffffffffffffffffffffffff1602179055508173ffffffffffffffffffffffffffffffffffffffff168173ffffffffffffffffffffffffffffffffffffffff167f8be0079c531659141344cd1fd0a4f28419497f9722a3daafe3b4186f6b6457e060405160405180910390a35050565b828054620001b49062000285565b90600052602060002090601f016020900481019282620001d8576000855562000224565b82601f10620001f357805160ff191683800117855562000224565b8280016001018555821562000224579182015b828111156200022357825182559160200191906001019062000206565b5b50905062000233919062000237565b5090565b5b808211156200025257600081600090555060010162000238565b5090565b7f4e487b7100000000000000000000000000000000000000000000000000000000600052602260045260246000fd5b600060028204905060018216806200029e57607f821691505b60208210811415620002b557620002b462000256565b5b50919050565b613b8580620002cb6000396000f3fe60806040526004361061012a5760003560e01c806370a08231116100ab578063a22cb4651161006f578063a22cb465146103bb578063b88d4fde146103e4578063c87b56dd1461040d578063da2ed03e1461044a578063e985e9c514610473578063f2fde38b146104b05761012a565b806370a08231146102e8578063715018a6146103255780638da5cb5b1461033c57806394383f141461036757806395d89b41146103905761012a565b806324600fc3116100f257806324600fc314610226578063305a67a81461023d57806342842e0e1461026657806351ed82881461028f5780636352211e146102ab5761012a565b806301ffc9a71461012f57806306fdde031461016c578063081812fc14610197578063095ea7b3146101d457806323b872dd146101fd575b600080fd5b34801561013b57600080fd5b5061015660048036038101906101519190612673565b6104d9565b60405161016391906126bb565b60405180910390f35b34801561017857600080fd5b506101816105bb565b60405161018e919061276f565b60405180910390f35b3480156101a357600080fd5b506101be60048036038101906101b991906127c7565b61064d565b6040516101cb9190612835565b60405180910390f35b3480156101e057600080fd5b506101fb60048036038101906101f6919061287c565b610693565b005b34801561020957600080fd5b50610224600480360381019061021f91906128bc565b6107ab565b005b34801561023257600080fd5b5061023b61080b565b005b34801561024957600080fd5b50610264600480360381019061025f91906127c7565b6108a5565b005b34801561027257600080fd5b5061028d600480360381019061028891906128bc565b610a9a565b005b6102a960048036038101906102a491906127c7565b610aba565b005b3480156102b757600080fd5b506102d260048036038101906102cd91906127c7565b610cf8565b6040516102df9190612835565b60405180910390f35b3480156102f457600080fd5b5061030f600480360381019061030a919061290f565b610d7f565b60405161031c919061294b565b60405180910390f35b34801561033157600080fd5b5061033a610e37565b005b34801561034857600080fd5b50610351610e4b565b60405161035e9190612835565b60405180910390f35b34801561037357600080fd5b5061038e60048036038101906103899190612966565b610e75565b005b34801561039c57600080fd5b506103a5610f96565b6040516103b2919061276f565b60405180910390f35b3480156103c757600080fd5b506103e260048036038101906103dd91906129d2565b611028565b005b3480156103f057600080fd5b5061040b60048036038101906104069190612b47565b61103e565b005b34801561041957600080fd5b50610434600480360381019061042f91906127c7565b6110a0565b604051610441919061276f565b60405180910390f35b34801561045657600080fd5b50610471600480360381019061046c9190612c2a565b6111b3565b005b34801561047f57600080fd5b5061049a60048036038101906104959190612c77565b61126b565b6040516104a791906126bb565b60405180910390f35b3480156104bc57600080fd5b506104d760048036038101906104d2919061290f565b6112ff565b005b60007f80ac58cd000000000000000000000000000000000000000000000000000000007bffffffffffffffffffffffffffffffffffffffffffffffffffffffff1916827bffffffffffffffffffffffffffffffffffffffffffffffffffffffff191614806105a457507f5b5e139f000000000000000000000000000000000000000000000000000000007bffffffffffffffffffffffffffffffffffffffffffffffffffffffff1916827bffffffffffffffffffffffffffffffffffffffffffffffffffffffff1916145b806105b457506105b382611383565b5b9050919050565b6060600080546105ca90612ce6565b80601f01602080910402602001604051908101604052809291908181526020018280546105f690612ce6565b80156106435780601f1061061857610100808354040283529160200191610643565b820191906000526020600020905b81548152906001019060200180831161062657829003601f168201915b5050505050905090565b6000610658826113ed565b6004600083815260200190815260200160002060009054906101000a900473ffffffffffffffffffffffffffffffffffffffff169050919050565b600061069e82610cf8565b90508073ffffffffffffffffffffffffffffffffffffffff168373ffffffffffffffffffffffffffffffffffffffff16141561070f576040517f08c379a000000000000000000000000000000000000000000000000000000000815260040161070690612d8a565b60405180910390fd5b8073ffffffffffffffffffffffffffffffffffffffff1661072e611438565b73ffffffffffffffffffffffffffffffffffffffff16148061075d575061075c81610757611438565b61126b565b5b61079c576040517f08c379a000000000000000000000000000000000000000000000000000000000815260040161079390612e1c565b60405180910390fd5b6107a68383611440565b505050565b6107bc6107b6611438565b826114f9565b6107fb576040517f08c379a00000000000000000000000000000000000000000000000000000000081526004016107f290612eae565b60405180910390fd5b61080683838361158e565b505050565b610813611888565b60004790506000811161085b576040517f08c379a000000000000000000000000000000000000000000000000000000000815260040161085290612f1a565b60405180910390fd5b3373ffffffffffffffffffffffffffffffffffffffff166108fc829081150290604051600060405180830381858888f193505050501580156108a1573d6000803e3d6000fd5b5050565b600060096000838152602001908152602001600020604051806040016040529081600082015481526020016001820160009054906101000a900473ffffffffffffffffffffffffffffffffffffffff1673ffffffffffffffffffffffffffffffffffffffff1673ffffffffffffffffffffffffffffffffffffffff16815250509050600081600001511161096e576040517f08c379a000000000000000000000000000000000000000000000000000000000815260040161096590612fac565b60405180910390fd5b3373ffffffffffffffffffffffffffffffffffffffff16816020015173ffffffffffffffffffffffffffffffffffffffff16146109e0576040517f08c379a00000000000000000000000000000000000000000000000000000000081526004016109d790613018565b60405180910390fd5b3073ffffffffffffffffffffffffffffffffffffffff166323b872dd3033856040518463ffffffff1660e01b8152600401610a1d93929190613038565b600060405180830381600087803b158015610a3757600080fd5b505af1158015610a4b573d6000803e3d6000fd5b50505050610a5882611906565b7f705332a8918666802fc1504f63ff1f002a5f6cedd30d59ad7ae0b5281aeb8dca8230336000604051610a8e94939291906130da565b60405180910390a15050565b610ab58383836040518060200160405280600081525061103e565b505050565b600060096000838152602001908152602001600020604051806040016040529081600082015481526020016001820160009054906101000a900473ffffffffffffffffffffffffffffffffffffffff1673ffffffffffffffffffffffffffffffffffffffff1673ffffffffffffffffffffffffffffffffffffffff168152505090506000816000015111610b83576040517f08c379a0000000000000000000000000000000000000000000000000000000008152600401610b7a90612fac565b60405180910390fd5b80600001513414610bc9576040517f08c379a0000000000000000000000000000000000000000000000000000000008152600401610bc09061317e565b60405180910390fd5b3073ffffffffffffffffffffffffffffffffffffffff166323b872dd3033856040518463ffffffff1660e01b8152600401610c0693929190613038565b600060405180830381600087803b158015610c2057600080fd5b505af1158015610c34573d6000803e3d6000fd5b50505050610c4182611906565b806020015173ffffffffffffffffffffffffffffffffffffffff166108fc610c8a6064610c7c605f866000015161197b90919063ffffffff16565b61199190919063ffffffff16565b9081150290604051600060405180830381858888f19350505050158015610cb5573d6000803e3d6000fd5b507f705332a8918666802fc1504f63ff1f002a5f6cedd30d59ad7ae0b5281aeb8dca8230336000604051610cec94939291906130da565b60405180910390a15050565b600080610d04836119a7565b9050600073ffffffffffffffffffffffffffffffffffffffff168173ffffffffffffffffffffffffffffffffffffffff161415610d76576040517f08c379a0000000000000000000000000000000000000000000000000000000008152600401610d6d906131ea565b60405180910390fd5b80915050919050565b60008073ffffffffffffffffffffffffffffffffffffffff168273ffffffffffffffffffffffffffffffffffffffff161415610df0576040517f08c379a0000000000000000000000000000000000000000000000000000000008152600401610de79061327c565b60405180910390fd5b600360008373ffffffffffffffffffffffffffffffffffffffff1673ffffffffffffffffffffffffffffffffffffffff168152602001908152602001600020549050919050565b610e3f611888565b610e4960006119e4565b565b6000600760009054906101000a900473ffffffffffffffffffffffffffffffffffffffff16905090565b60008111610eb8576040517f08c379a0000000000000000000000000000000000000000000000000000000008152600401610eaf9061330e565b60405180910390fd5b610ec33330846107ab565b60405180604001604052808281526020013373ffffffffffffffffffffffffffffffffffffffff16815250600960008481526020019081526020016000206000820151816000015560208201518160010160006101000a81548173ffffffffffffffffffffffffffffffffffffffff021916908373ffffffffffffffffffffffffffffffffffffffff1602179055509050507f705332a8918666802fc1504f63ff1f002a5f6cedd30d59ad7ae0b5281aeb8dca82333084604051610f8a949392919061332e565b60405180910390a15050565b606060018054610fa590612ce6565b80601f0160208091040260200160405190810160405280929190818152602001828054610fd190612ce6565b801561101e5780601f10610ff35761010080835404028352916020019161101e565b820191906000526020600020905b81548152906001019060200180831161100157829003601f168201915b5050505050905090565b61103a611033611438565b8383611aaa565b5050565b61104f611049611438565b836114f9565b61108e576040517f08c379a000000000000000000000000000000000000000000000000000000000815260040161108590612eae565b60405180910390fd5b61109a84848484611c17565b50505050565b60606110ab826113ed565b60006006600084815260200190815260200160002080546110cb90612ce6565b80601f01602080910402602001604051908101604052809291908181526020018280546110f790612ce6565b80156111445780601f1061111957610100808354040283529160200191611144565b820191906000526020600020905b81548152906001019060200180831161112757829003601f168201915b505050505090506000611155611c73565b905060008151141561116b5781925050506111ae565b6000825111156111a05780826040516020016111889291906133c2565b604051602081830303815290604052925050506111ae565b6111a984611c8a565b925050505b919050565b6111bd6008611cf2565b60006111c96008611d08565b90506111d53382611d16565b6112238184848080601f016020809104026020016040519081016040528093929190818152602001838380828437600081840152601f19601f82011690508083019250505050505050611d34565b7f705332a8918666802fc1504f63ff1f002a5f6cedd30d59ad7ae0b5281aeb8dca816000338686600060405161125e96959493929190613413565b60405180910390a1505050565b6000600560008473ffffffffffffffffffffffffffffffffffffffff1673ffffffffffffffffffffffffffffffffffffffff16815260200190815260200160002060008373ffffffffffffffffffffffffffffffffffffffff1673ffffffffffffffffffffffffffffffffffffffff16815260200190815260200160002060009054906101000a900460ff16905092915050565b611307611888565b600073ffffffffffffffffffffffffffffffffffffffff168173ffffffffffffffffffffffffffffffffffffffff161415611377576040517f08c379a000000000000000000000000000000000000000000000000000000000815260040161136e906134e1565b60405180910390fd5b611380816119e4565b50565b60007f01ffc9a7000000000000000000000000000000000000000000000000000000007bffffffffffffffffffffffffffffffffffffffffffffffffffffffff1916827bffffffffffffffffffffffffffffffffffffffffffffffffffffffff1916149050919050565b6113f681611da8565b611435576040517f08c379a000000000000000000000000000000000000000000000000000000000815260040161142c906131ea565b60405180910390fd5b50565b600033905090565b816004600083815260200190815260200160002060006101000a81548173ffffffffffffffffffffffffffffffffffffffff021916908373ffffffffffffffffffffffffffffffffffffffff160217905550808273ffffffffffffffffffffffffffffffffffffffff166114b383610cf8565b73ffffffffffffffffffffffffffffffffffffffff167f8c5be1e5ebec7d5bd14f71427d1e84f3dd0314c0f7b2291e5b200ac8c7c3b92560405160405180910390a45050565b60008061150583610cf8565b90508073ffffffffffffffffffffffffffffffffffffffff168473ffffffffffffffffffffffffffffffffffffffff1614806115475750611546818561126b565b5b8061158557508373ffffffffffffffffffffffffffffffffffffffff1661156d8461064d565b73ffffffffffffffffffffffffffffffffffffffff16145b91505092915050565b8273ffffffffffffffffffffffffffffffffffffffff166115ae82610cf8565b73ffffffffffffffffffffffffffffffffffffffff1614611604576040517f08c379a00000000000000000000000000000000000000000000000000000000081526004016115fb90613573565b60405180910390fd5b600073ffffffffffffffffffffffffffffffffffffffff168273ffffffffffffffffffffffffffffffffffffffff161415611674576040517f08c379a000000000000000000000000000000000000000000000000000000000815260040161166b90613605565b60405180910390fd5b6116818383836001611de9565b8273ffffffffffffffffffffffffffffffffffffffff166116a182610cf8565b73ffffffffffffffffffffffffffffffffffffffff16146116f7576040517f08c379a00000000000000000000000000000000000000000000000000000000081526004016116ee90613573565b60405180910390fd5b6004600082815260200190815260200160002060006101000a81549073ffffffffffffffffffffffffffffffffffffffff02191690556001600360008573ffffffffffffffffffffffffffffffffffffffff1673ffffffffffffffffffffffffffffffffffffffff168152602001908152602001600020600082825403925050819055506001600360008473ffffffffffffffffffffffffffffffffffffffff1673ffffffffffffffffffffffffffffffffffffffff16815260200190815260200160002060008282540192505081905550816002600083815260200190815260200160002060006101000a81548173ffffffffffffffffffffffffffffffffffffffff021916908373ffffffffffffffffffffffffffffffffffffffff160217905550808273ffffffffffffffffffffffffffffffffffffffff168473ffffffffffffffffffffffffffffffffffffffff167fddf252ad1be2c89b69c2b068fc378daa952ba7f163c4a11628f55a4df523b3ef60405160405180910390a46118838383836001611f0f565b505050565b611890611438565b73ffffffffffffffffffffffffffffffffffffffff166118ae610e4b565b73ffffffffffffffffffffffffffffffffffffffff1614611904576040517f08c379a00000000000000000000000000000000000000000000000000000000081526004016118fb90613671565b60405180910390fd5b565b6000600960008381526020019081526020016000206000018190555060006009600083815260200190815260200160002060010160006101000a81548173ffffffffffffffffffffffffffffffffffffffff021916908373ffffffffffffffffffffffffffffffffffffffff16021790555050565b6000818361198991906136c0565b905092915050565b6000818361199f9190613749565b905092915050565b60006002600083815260200190815260200160002060009054906101000a900473ffffffffffffffffffffffffffffffffffffffff169050919050565b6000600760009054906101000a900473ffffffffffffffffffffffffffffffffffffffff16905081600760006101000a81548173ffffffffffffffffffffffffffffffffffffffff021916908373ffffffffffffffffffffffffffffffffffffffff1602179055508173ffffffffffffffffffffffffffffffffffffffff168173ffffffffffffffffffffffffffffffffffffffff167f8be0079c531659141344cd1fd0a4f28419497f9722a3daafe3b4186f6b6457e060405160405180910390a35050565b8173ffffffffffffffffffffffffffffffffffffffff168373ffffffffffffffffffffffffffffffffffffffff161415611b19576040517f08c379a0000000000000000000000000000000000000000000000000000000008152600401611b10906137c6565b60405180910390fd5b80600560008573ffffffffffffffffffffffffffffffffffffffff1673ffffffffffffffffffffffffffffffffffffffff16815260200190815260200160002060008473ffffffffffffffffffffffffffffffffffffffff1673ffffffffffffffffffffffffffffffffffffffff16815260200190815260200160002060006101000a81548160ff0219169083151502179055508173ffffffffffffffffffffffffffffffffffffffff168373ffffffffffffffffffffffffffffffffffffffff167f17307eab39ab6107e8899845ad3d59bd9653f200f220920489ca2b5937696c3183604051611c0a91906126bb565b60405180910390a3505050565b611c2284848461158e565b611c2e84848484611f15565b611c6d576040517f08c379a0000000000000000000000000000000000000000000000000000000008152600401611c6490613858565b60405180910390fd5b50505050565b606060405180602001604052806000815250905090565b6060611c95826113ed565b6000611c9f611c73565b90506000815111611cbf5760405180602001604052806000815250611cea565b80611cc98461209d565b604051602001611cda9291906133c2565b6040516020818303038152906040525b915050919050565b6001816000016000828254019250508190555050565b600081600001549050919050565b611d30828260405180602001604052806000815250612175565b5050565b611d3d82611da8565b611d7c576040517f08c379a0000000000000000000000000000000000000000000000000000000008152600401611d73906138ea565b60405180910390fd5b80600660008481526020019081526020016000209080519060200190611da3929190612564565b505050565b60008073ffffffffffffffffffffffffffffffffffffffff16611dca836119a7565b73ffffffffffffffffffffffffffffffffffffffff1614159050919050565b6001811115611f0957600073ffffffffffffffffffffffffffffffffffffffff168473ffffffffffffffffffffffffffffffffffffffff1614611e7d5780600360008673ffffffffffffffffffffffffffffffffffffffff1673ffffffffffffffffffffffffffffffffffffffff1681526020019081526020016000206000828254611e75919061390a565b925050819055505b600073ffffffffffffffffffffffffffffffffffffffff168373ffffffffffffffffffffffffffffffffffffffff1614611f085780600360008573ffffffffffffffffffffffffffffffffffffffff1673ffffffffffffffffffffffffffffffffffffffff1681526020019081526020016000206000828254611f00919061393e565b925050819055505b5b50505050565b50505050565b6000611f368473ffffffffffffffffffffffffffffffffffffffff166121d0565b15612090578373ffffffffffffffffffffffffffffffffffffffff1663150b7a02611f5f611438565b8786866040518563ffffffff1660e01b8152600401611f8194939291906139e9565b6020604051808303816000875af1925050508015611fbd57506040513d601f19601f82011682018060405250810190611fba9190613a4a565b60015b612040573d8060008114611fed576040519150601f19603f3d011682016040523d82523d6000602084013e611ff2565b606091505b50600081511415612038576040517f08c379a000000000000000000000000000000000000000000000000000000000815260040161202f90613858565b60405180910390fd5b805181602001fd5b63150b7a0260e01b7bffffffffffffffffffffffffffffffffffffffffffffffffffffffff1916817bffffffffffffffffffffffffffffffffffffffffffffffffffffffff191614915050612095565b600190505b949350505050565b6060600060016120ac846121f3565b01905060008167ffffffffffffffff8111156120cb576120ca612a1c565b5b6040519080825280601f01601f1916602001820160405280156120fd5781602001600182028036833780820191505090505b509050600082602001820190505b60011561216a578080600190039150507f3031323334353637383961626364656600000000000000000000000000000000600a86061a8153600a85816121545761215361371a565b5b04945060008514156121655761216a565b61210b565b819350505050919050565b61217f8383612346565b61218c6000848484611f15565b6121cb576040517f08c379a00000000000000000000000000000000000000000000000000000000081526004016121c290613858565b60405180910390fd5b505050565b6000808273ffffffffffffffffffffffffffffffffffffffff163b119050919050565b600080600090507a184f03e93ff9f4daa797ed6e38ed64bf6a1f0100000000000000008310612251577a184f03e93ff9f4daa797ed6e38ed64bf6a1f01000000000000000083816122475761224661371a565b5b0492506040810190505b6d04ee2d6d415b85acef8100000000831061228e576d04ee2d6d415b85acef810000000083816122845761228361371a565b5b0492506020810190505b662386f26fc1000083106122bd57662386f26fc1000083816122b3576122b261371a565b5b0492506010810190505b6305f5e10083106122e6576305f5e10083816122dc576122db61371a565b5b0492506008810190505b612710831061230b5761271083816123015761230061371a565b5b0492506004810190505b6064831061232e57606483816123245761232361371a565b5b0492506002810190505b600a831061233d576001810190505b80915050919050565b600073ffffffffffffffffffffffffffffffffffffffff168273ffffffffffffffffffffffffffffffffffffffff1614156123b6576040517f08c379a00000000000000000000000000000000000000000000000000000000081526004016123ad90613ac3565b60405180910390fd5b6123bf81611da8565b156123ff576040517f08c379a00000000000000000000000000000000000000000000000000000000081526004016123f690613b2f565b60405180910390fd5b61240d600083836001611de9565b61241681611da8565b15612456576040517f08c379a000000000000000000000000000000000000000000000000000000000815260040161244d90613b2f565b60405180910390fd5b6001600360008473ffffffffffffffffffffffffffffffffffffffff1673ffffffffffffffffffffffffffffffffffffffff16815260200190815260200160002060008282540192505081905550816002600083815260200190815260200160002060006101000a81548173ffffffffffffffffffffffffffffffffffffffff021916908373ffffffffffffffffffffffffffffffffffffffff160217905550808273ffffffffffffffffffffffffffffffffffffffff16600073ffffffffffffffffffffffffffffffffffffffff167fddf252ad1be2c89b69c2b068fc378daa952ba7f163c4a11628f55a4df523b3ef60405160405180910390a4612560600083836001611f0f565b5050565b82805461257090612ce6565b90600052602060002090601f01602090048101928261259257600085556125d9565b82601f106125ab57805160ff19168380011785556125d9565b828001600101855582156125d9579182015b828111156125d85782518255916020019190600101906125bd565b5b5090506125e691906125ea565b5090565b5b808211156126035760008160009055506001016125eb565b5090565b6000604051905090565b600080fd5b600080fd5b60007fffffffff0000000000000000000000000000000000000000000000000000000082169050919050565b6126508161261b565b811461265b57600080fd5b50565b60008135905061266d81612647565b92915050565b60006020828403121561268957612688612611565b5b60006126978482850161265e565b91505092915050565b60008115159050919050565b6126b5816126a0565b82525050565b60006020820190506126d060008301846126ac565b92915050565b600081519050919050565b600082825260208201905092915050565b60005b838110156127105780820151818401526020810190506126f5565b8381111561271f576000848401525b50505050565b6000601f19601f8301169050919050565b6000612741826126d6565b61274b81856126e1565b935061275b8185602086016126f2565b61276481612725565b840191505092915050565b600060208201905081810360008301526127898184612736565b905092915050565b6000819050919050565b6127a481612791565b81146127af57600080fd5b50565b6000813590506127c18161279b565b92915050565b6000602082840312156127dd576127dc612611565b5b60006127eb848285016127b2565b91505092915050565b600073ffffffffffffffffffffffffffffffffffffffff82169050919050565b600061281f826127f4565b9050919050565b61282f81612814565b82525050565b600060208201905061284a6000830184612826565b92915050565b61285981612814565b811461286457600080fd5b50565b60008135905061287681612850565b92915050565b6000806040838503121561289357612892612611565b5b60006128a185828601612867565b92505060206128b2858286016127b2565b9150509250929050565b6000806000606084860312156128d5576128d4612611565b5b60006128e386828701612867565b93505060206128f486828701612867565b9250506040612905868287016127b2565b9150509250925092565b60006020828403121561292557612924612611565b5b600061293384828501612867565b91505092915050565b61294581612791565b82525050565b6000602082019050612960600083018461293c565b92915050565b6000806040838503121561297d5761297c612611565b5b600061298b858286016127b2565b925050602061299c858286016127b2565b9150509250929050565b6129af816126a0565b81146129ba57600080fd5b50565b6000813590506129cc816129a6565b92915050565b600080604083850312156129e9576129e8612611565b5b60006129f785828601612867565b9250506020612a08858286016129bd565b9150509250929050565b600080fd5b600080fd5b7f4e487b7100000000000000000000000000000000000000000000000000000000600052604160045260246000fd5b612a5482612725565b810181811067ffffffffffffffff82111715612a7357612a72612a1c565b5b80604052505050565b6000612a86612607565b9050612a928282612a4b565b919050565b600067ffffffffffffffff821115612ab257612ab1612a1c565b5b612abb82612725565b9050602081019050919050565b82818337600083830152505050565b6000612aea612ae584612a97565b612a7c565b905082815260208101848484011115612b0657612b05612a17565b5b612b11848285612ac8565b509392505050565b600082601f830112612b2e57612b2d612a12565b5b8135612b3e848260208601612ad7565b91505092915050565b60008060008060808587031215612b6157612b60612611565b5b6000612b6f87828801612867565b9450506020612b8087828801612867565b9350506040612b91878288016127b2565b925050606085013567ffffffffffffffff811115612bb257612bb1612616565b5b612bbe87828801612b19565b91505092959194509250565b600080fd5b600080fd5b60008083601f840112612bea57612be9612a12565b5b8235905067ffffffffffffffff811115612c0757612c06612bca565b5b602083019150836001820283011115612c2357612c22612bcf565b5b9250929050565b60008060208385031215612c4157612c40612611565b5b600083013567ffffffffffffffff811115612c5f57612c5e612616565b5b612c6b85828601612bd4565b92509250509250929050565b60008060408385031215612c8e57612c8d612611565b5b6000612c9c85828601612867565b9250506020612cad85828601612867565b9150509250929050565b7f4e487b7100000000000000000000000000000000000000000000000000000000600052602260045260246000fd5b60006002820490506001821680612cfe57607f821691505b60208210811415612d1257612d11612cb7565b5b50919050565b7f4552433732313a20617070726f76616c20746f2063757272656e74206f776e6560008201527f7200000000000000000000000000000000000000000000000000000000000000602082015250565b6000612d746021836126e1565b9150612d7f82612d18565b604082019050919050565b60006020820190508181036000830152612da381612d67565b9050919050565b7f4552433732313a20617070726f76652063616c6c6572206973206e6f7420746f60008201527f6b656e206f776e6572206f7220617070726f76656420666f7220616c6c000000602082015250565b6000612e06603d836126e1565b9150612e1182612daa565b604082019050919050565b60006020820190508181036000830152612e3581612df9565b9050919050565b7f4552433732313a2063616c6c6572206973206e6f7420746f6b656e206f776e6560008201527f72206f7220617070726f76656400000000000000000000000000000000000000602082015250565b6000612e98602d836126e1565b9150612ea382612e3c565b604082019050919050565b60006020820190508181036000830152612ec781612e8b565b9050919050565b7f4e46544d61726b65743a2062616c616e6365206973207a65726f000000000000600082015250565b6000612f04601a836126e1565b9150612f0f82612ece565b602082019050919050565b60006020820190508181036000830152612f3381612ef7565b9050919050565b7f4e46544d61726b65743a206e6674206e6f74206c697374656420666f7220736160008201527f6c65000000000000000000000000000000000000000000000000000000000000602082015250565b6000612f966022836126e1565b9150612fa182612f3a565b604082019050919050565b60006020820190508181036000830152612fc581612f89565b9050919050565b7f4e46544d61726b65743a20796f75277265206e6f74207468652073656c6c6572600082015250565b60006130026020836126e1565b915061300d82612fcc565b602082019050919050565b6000602082019050818103600083015261303181612ff5565b9050919050565b600060608201905061304d6000830186612826565b61305a6020830185612826565b613067604083018461293c565b949350505050565b50565b600061307f6000836126e1565b915061308a8261306f565b600082019050919050565b6000819050919050565b6000819050919050565b60006130c46130bf6130ba84613095565b61309f565b612791565b9050919050565b6130d4816130a9565b82525050565b600060a0820190506130ef600083018761293c565b6130fc6020830186612826565b6131096040830185612826565b818103606083015261311a81613072565b905061312960808301846130cb565b95945050505050565b7f4e46544d61726b65743a20696e636f7272656374207072696365000000000000600082015250565b6000613168601a836126e1565b915061317382613132565b602082019050919050565b600060208201905081810360008301526131978161315b565b9050919050565b7f4552433732313a20696e76616c696420746f6b656e2049440000000000000000600082015250565b60006131d46018836126e1565b91506131df8261319e565b602082019050919050565b60006020820190508181036000830152613203816131c7565b9050919050565b7f4552433732313a2061646472657373207a65726f206973206e6f74206120766160008201527f6c6964206f776e65720000000000000000000000000000000000000000000000602082015250565b60006132666029836126e1565b91506132718261320a565b604082019050919050565b6000602082019050818103600083015261329581613259565b9050919050565b7f4e46544d61726b65743a207072696365206d757374206265206772656174657260008201527f207468616e203000000000000000000000000000000000000000000000000000602082015250565b60006132f86027836126e1565b91506133038261329c565b604082019050919050565b60006020820190508181036000830152613327816132eb565b9050919050565b600060a082019050613343600083018761293c565b6133506020830186612826565b61335d6040830185612826565b818103606083015261336e81613072565b905061337d608083018461293c565b95945050505050565b600081905092915050565b600061339c826126d6565b6133a68185613386565b93506133b68185602086016126f2565b80840191505092915050565b60006133ce8285613391565b91506133da8284613391565b91508190509392505050565b60006133f283856126e1565b93506133ff838584612ac8565b61340883612725565b840190509392505050565b600060a082019050613428600083018961293c565b6134356020830188612826565b6134426040830187612826565b81810360608301526134558185876133e6565b905061346460808301846130cb565b979650505050505050565b7f4f776e61626c653a206e6577206f776e657220697320746865207a65726f206160008201527f6464726573730000000000000000000000000000000000000000000000000000602082015250565b60006134cb6026836126e1565b91506134d68261346f565b604082019050919050565b600060208201905081810360008301526134fa816134be565b9050919050565b7f4552433732313a207472616e736665722066726f6d20696e636f72726563742060008201527f6f776e6572000000000000000000000000000000000000000000000000000000602082015250565b600061355d6025836126e1565b915061356882613501565b604082019050919050565b6000602082019050818103600083015261358c81613550565b9050919050565b7f4552433732313a207472616e7366657220746f20746865207a65726f2061646460008201527f7265737300000000000000000000000000000000000000000000000000000000602082015250565b60006135ef6024836126e1565b91506135fa82613593565b604082019050919050565b6000602082019050818103600083015261361e816135e2565b9050919050565b7f4f776e61626c653a2063616c6c6572206973206e6f7420746865206f776e6572600082015250565b600061365b6020836126e1565b915061366682613625565b602082019050919050565b6000602082019050818103600083015261368a8161364e565b9050919050565b7f4e487b7100000000000000000000000000000000000000000000000000000000600052601160045260246000fd5b60006136cb82612791565b91506136d683612791565b9250817fffffffffffffffffffffffffffffffffffffffffffffffffffffffffffffffff048311821515161561370f5761370e613691565b5b828202905092915050565b7f4e487b7100000000000000000000000000000000000000000000000000000000600052601260045260246000fd5b600061375482612791565b915061375f83612791565b92508261376f5761376e61371a565b5b828204905092915050565b7f4552433732313a20617070726f766520746f2063616c6c657200000000000000600082015250565b60006137b06019836126e1565b91506137bb8261377a565b602082019050919050565b600060208201905081810360008301526137df816137a3565b9050919050565b7f4552433732313a207472616e7366657220746f206e6f6e20455243373231526560008201527f63656976657220696d706c656d656e7465720000000000000000000000000000602082015250565b60006138426032836126e1565b915061384d826137e6565b604082019050919050565b6000602082019050818103600083015261387181613835565b9050919050565b7f45524337323155524953746f726167653a2055524920736574206f66206e6f6e60008201527f6578697374656e7420746f6b656e000000000000000000000000000000000000602082015250565b60006138d4602e836126e1565b91506138df82613878565b604082019050919050565b60006020820190508181036000830152613903816138c7565b9050919050565b600061391582612791565b915061392083612791565b92508282101561393357613932613691565b5b828203905092915050565b600061394982612791565b915061395483612791565b9250827fffffffffffffffffffffffffffffffffffffffffffffffffffffffffffffffff0382111561398957613988613691565b5b828201905092915050565b600081519050919050565b600082825260208201905092915050565b60006139bb82613994565b6139c5818561399f565b93506139d58185602086016126f2565b6139de81612725565b840191505092915050565b60006080820190506139fe6000830187612826565b613a0b6020830186612826565b613a18604083018561293c565b8181036060830152613a2a81846139b0565b905095945050505050565b600081519050613a4481612647565b92915050565b600060208284031215613a6057613a5f612611565b5b6000613a6e84828501613a35565b91505092915050565b7f4552433732313a206d696e7420746f20746865207a65726f2061646472657373600082015250565b6000613aad6020836126e1565b9150613ab882613a77565b602082019050919050565b60006020820190508181036000830152613adc81613aa0565b9050919050565b7f4552433732313a20746f6b656e20616c7265616479206d696e74656400000000600082015250565b6000613b19601c836126e1565b9150613b2482613ae3565b602082019050919050565b60006020820190508181036000830152613b4881613b0c565b905091905056fea26469706673582212200661e79fa3f24b6350d51aa6527bc736e7ed96ecad2529506fd55328e7d5beaf64736f6c634300080b0033",
  "linkReferences": {},
  "deployedLinkReferences": {}
}